S013000052656D6F746544656D6F432E73726563DD
S11300000C9434000C9446000C9446000C94460066
S11300100C9446000C9446000C9446000C94460044
S11300200C9446000C9446000C9414010C94460065
S11300300C9446000C946A020C9446000C944600FE
S11300400C9446000C9446000C9446000C94460014
S11300500C9446000C9446000C9446000C94460004
S11300600C9446000C94460011241FBECFEFD8E038
S1130070DEBFCDBF21E0A0E0B1E001C01D92A231FE
S1130080B207E1F70E947B020C94D7030C940000A2
S113009010920E0110920F01109210011092110192
S11300A0109207011092040110920601089584B180
S11300B08E7F84B985B18D7F85B984B1826084B91E
S11300C0E1E8F0E080E8808380818360808381E2DE
S11300D080936F0078940895CF9380910901809361
S11300E0080190910601993009F07AC0813089F5B0
S11300F080910E0190910F01A0911001B091110116
S11301000097A105B10509F45FC090930D01809398
S11301100C014A2F50E050930B0140930A012B2FFE
S11301202095BC01772788278095909568177907D3
S113013029F470930D0160930C0103C082E0809355
S11301400801822F90E04817590709F43FC0C0E026
S113015042C08330E9F580910E0190910F01A09186
S11301601001B0911101AC01BD01689415F87695A8
S11301706795579547951694D1F74F715527509326
S11301800D0140930C019C012F73332730930B0115
S113019020930A01AC01BD01032E3BE076956795DF
S11301A0579547953A95D1F7302D41704093050105
S11301B094FD10C084E080930801206430930B0107
S11301C020930A01C1E007C0C1E005C0C1E003C03B
S11301D0C0E001C0C1E0109206010E94480001C0C5
S11301E0C0E0CC2311F081E001C080E0CF910895FC
S11301F020910C0130910D01FC0131832083809109
S11302000A0190910B01FB019183808310920B01F1
S113021010920A0110920D0110920C010895809120
S113022003011092030108951F920F920FB60F92CB
S11302301124EF92FF920F931F932F933F934F93A9
S11302405F936F937F938F939F93AF93BF93CF935A
S1130250EF93FF9380910601893009F425C1209121
S11302600101309102018091860090918700909362
S1130270020180930101E1E8F0E0908180E48927A4
S11302808083C081C07480910001882359F06091FB
S1130290010170910201621B730B6150710910928C
S11302A0000106C06091010170910201621B730B91
S11302B080E090E00E94DC022DEB37E346E856E351
S11302C00E94420320E034E244E759E40E944203DE
S11302D00E94AD029B0169390AE3700718F00E947D
S11302E04800E2C0409106014130A9F138F047309E
S11302F009F44EC0483009F4D4C0D6C010920901A4
S113030041E040930601AB01495253424B32514004
S113031020F481E080930901C7C0C111C5C06137D1
S1130320734008F4C1C0243D83E0380708F0BCC022
S113033083E08093090187E0809306018DE0809338
S113034007012D3D354008F4AFC0809104018F5F53
S113035080930401A9C020910901213009F0A4C0AF
S11303609B012D5C30412B32314020F487E0809397
S113037006019AC0AB01415D57404B32514008F031
S113038093C081E08093030189E0809306018CC0CF
S1130390809109018130A1F5CC2309F485C021F1B4
S11303A02D3D354008F181E090E0A0E0B0E0009000
S11303B0070104C0880F991FAA1FBB1F0A94D2F714
S11303C040910E0150910F01609110017091110143
S11303D0842B952BA62BB72B80930E0190930F01A2
S11303E0A0931001B0931101809107018F5F809356
S11303F00701803208F458C088E08093060154C095
S1130400833009F051C0809104018F5F809304010F
S1130410823060F110920401809107018150809331
S11304200701C11123C041E050E060E070E07A01AF
S11304308B0104C0EE0CFF1C001F111F8A95D2F71C
S1130440D801C70140910E0150910F016091100134
S113045070911101842B952BA62BB72B80930E0141
S113046090930F01A0931001B09311012D3D3540DD
S113047028F0809104018F5F80930401809107012B
S1130480813049F490910401913029F4C11103C0E1
S113049099E090930601811107C089E080930601D9
S11304A003C089E080930601FF91EF91CF91BF9142
S11304B0AF919F918F917F916F915F914F913F91F8
S11304C02F911F910F91FF90EF900F900FBE0F90FF
S11304D01F9018951F920F920FB60F9211248F93AD
S11304E0809100018F5F809300018F910F900FBE68
S11304F00F901F901895CF93DF9300D000D0CDB705
S1130500DEB78AB180618AB91A8219821C821B8281
S11305100E9457008BB18F7E8BB90E946C00882398
S1130520C9F30E940F018111F5CFBE016D5F7F4FAA
S1130530CE0101960E94F8008B819C81029751F7AD
S11305408BB180618BB92FEF87EA91E6215080400F
S11305509040E1F700C00000DDCF0E94210388F045
S11305609F5798F0B92F9927B751B0F0E1F0660F73
S1130570771F881F991F1AF0BA95C9F714C0B130B4
S113058091F00E943B03B1E008950C943B03672F64
S1130590782F8827B85F39F0B93FCCF386957795E3
S11305A06795B395D9F73EF49095809570956195CC
S11305B07F4F8F4F9F4F0895E89409C097FB3EF4F7
S11305C090958095709561957F4F8F4F9F4F99239C
S11305D0A9F0F92F96E9BB279395F695879577951A
S11305E06795B795F111F8CFFAF4BB0F11F460FFDA
S11305F01BC06F5F7F4F8F4F9F4F16C0882311F032
S113060096E911C0772321F09EE8872F762F05C045
S1130610662371F096E8862F70E060E02AF09A95E0
S1130620660F771F881FDAF7880F9695879597F9D5
S1130630089557FD9058440F551F59F05F3F71F0CE
S11306404795880F97FB991F61F09F3F79F0879535
S11306500895121613061406551FF2CF4695F1DFBE
S113066008C0161617061806991FF1CF869571054E
S1130670610508940895E894BB2766277727CB0182
S113068097F908950E9455030C94C6030E94B80379
S113069038F00E94BF0320F0952311F00C94AF03AF
S11306A00C94B50311240C943C030E94190370F3B9
S11306B0959FC1F3950F50E0551F629FF001729F03
S11306C0BB27F00DB11D639FAA27F00DB11DAA1F12
S11306D0649F6627B00DA11D661F829F2227B00D5F
S11306E0A11D621F739FB00DA11D621F839FA00DEA
S11306F0611D221F749F3327A00D611D231F849F3A
S1130700600D211D822F762F6A2F11249F57504090
S11307109AF0F1F088234AF0EE0FFF1FBB1F661F0B
S1130720771F881F91505040A9F79E3F510580F0D4
S11307300C94AF030C943C035F3FE4F3983ED4F372
S1130740869577956795B795F795E7959F5FC1F778
S1130750FE2B880F911D9695879597F9089597F923
S11307609F6780E870E060E008959FEF80EC089553
S113077000240A941616170618060906089500247C
S11307800A9412161306140605060895092E0394F6
S1130790000C11F4882352F0BB0F40F4BF2B11F46A
S11307A060FF04C06F5F7F4F8F4F9F4F0895F89491
S10507B0FFCF75
S9030000FC
