S01100004C45442044656D6F432E7372656356
S11300000C9434000C943E000C943E000C943E007E
S11300100C943E000C943E000C943E000C943E0064
S11300200C943E000C943E000C943E000C943E0054
S11300300C943E000C943E000C943E000C943E0044
S11300400C943E000C943E000C943E000C943E0034
S11300500C943E000C943E000C943E000C943E0024
S11300600C943E000C943E0011241FBECFEFD8E048
S1130070DEBFCDBF0E9463000C9484000C9400008A
S11300801092B30017BC8FEF88BD8093B40008951D
S113009014BC15BCA0EBB0E01C92E1EBF0E01082C4
S11300A08AB180628AB98AB180648AB98AB1886067
S11300B08AB984B1886084B993EA94BD83E085BD2C
S11300C09C93808308950E944800E0EBF0E08081D7
S11300D08F7D80830E9440002FEF87EA91E62150B4
S11300E080409040E1F700C00000E0EBF0E0808148
S11300F0806280832FEF87EA91E621508040904010
S10F0100E1F700C00000E6CFF894FFCF48
S9030000FC
