:100000000C943C000C9459000C9459000C94590029
:100010000C9459000C9459000C9459000C945900FC
:100020000C9459000C9459000C9427010C9459001D
:100030000C9459000C947D020C9459000C945900B6
:100040000C9459000C9459000C9459000C945900CC
:100050000C9459000C9459000C9459000C945900BC
:100060000C9459000C945900C002C602D302E60257
:10007000FF0225033D03550311241FBECFEFD8E037
:10008000DEBFCDBF11E0A0E0B1E0E4E2FAE002C0E3
:1000900005900D92A230B107D9F721E0A2E0B1E0BE
:1000A00001C01D92A531B207E1F70E94BA030C947A
:1000B00010050C9400001092110110921201109280
:1000C00013011092140110920A011092070110926C
:1000D0000901089584B18E7F84B985B18D7F85B97A
:1000E00084B1826084B9E1E8F0E080E880838081B7
:1000F0008360808381E280936F0078940895CF932A
:1001000080910C0180930B0190910901993009F0C5
:100110007AC0813089F58091110190911201A091EE
:100120001301B09114010097A105B10509F45FC056
:100130009093100180930F014A2F50E050930E01CD
:1001400040930D012B2F2095BC01772788278095A0
:1001500090956817790729F47093100160930F0147
:1001600003C082E080930B01822F90E0481759076B
:1001700009F43FC0C0E042C08330E9F5809111012D
:1001800090911201A0911301B0911401AC01BD0135
:10019000689415F876956795579547951694D1F715
:1001A0004F7155275093100140930F019C012F73FD
:1001B000332730930E0120930D01AC01BD01032EB6
:1001C0003BE076956795579547953A95D1F7302D51
:1001D00041704093080194FD10C084E080930B01AE
:1001E000206430930E0120930D01C1E007C0C1E0EF
:1001F00005C0C1E003C0C0E001C0C1E01092090128
:100200000E945B0001C0C0E0CC2311F081E001C07E
:1002100080E0CF91089520910F0130911001FC01F1
:100220003183208380910D0190910E01FB01918318
:10023000808310920E0110920D0110921001109205
:100240000F010895809106011092060108951F92F2
:100250000F920FB60F921124EF92FF920F931F93FC
:100260002F933F934F935F936F937F938F939F93BE
:10027000AF93BF93CF93EF93FF93809109018930A0
:1002800009F425C120910401309105018091860077
:10029000909187009093050180930401E1E8F0E0DC
:1002A000908180E489278083C081C074809103019C
:1002B000882359F06091040170910501621B730B52
:1002C000615071091092030106C0609104017091A0
:1002D0000501621B730B80E090E00E940F042DEB80
:1002E00037E346E856E30E94750420E034E244E731
:1002F00059E40E9475040E94E0039B0169390AE3F6
:10030000700718F00E945B00E2C040910901413083
:10031000A9F138F0473009F44EC0483009F4D4C090
:10032000D6C010920C0141E040930901AB01495243
:1003300053424B32514020F481E080930C01C7C0FE
:10034000C111C5C06137734008F4C1C0243D83E0CA
:10035000380708F0BCC083E080930C0187E08093ED
:1003600009018DE080930A012D3D354008F4AFC0AE
:10037000809107018F5F80930701A9C020910C0134
:10038000213009F0A4C09B012D5C30412B3231405B
:1003900020F487E0809309019AC0AB01415D57408A
:1003A0004B32514008F093C081E08093060189E010
:1003B000809309018CC080910C018130A1F5CC2380
:1003C00009F485C021F12D3D354008F181E090E030
:1003D000A0E0B0E000900A0104C0880F991FAA1F96
:1003E000BB1F0A94D2F74091110150911201609104
:1003F000130170911401842B952BA62BB72B80939E
:10040000110190931201A0931301B09314018091F4
:100410000A018F5F80930A01803208F458C088E097
:100420008093090154C0833009F051C080910701C5
:100430008F5F80930701823060F1109207018091F5
:100440000A01815080930A01C11123C041E050E0AC
:1004500060E070E07A018B0104C0EE0CFF1C001F0D
:10046000111F8A95D2F7D801C7014091110150910F
:1004700012016091130170911401842B952BA62B0E
:10048000B72B8093110190931201A0931301B093A5
:1004900014012D3D354028F0809107018F5F809336
:1004A000070180910A01813049F490910701913050
:1004B00029F4C11103C099E090930901811107C08B
:1004C00089E08093090103C089E080930901FF91CD
:1004D000EF91CF91BF91AF919F918F917F916F914C
:1004E0005F914F913F912F911F910F91FF90EF904E
:1004F0000F900FBE0F901F9018951F920F920FB67E
:100500000F9211248F93809103018F5F80930301D9
:100510008F910F900FBE0F901F90189514BC15BCB3
:10052000A0EBB0E01C92E1EBF0E010828AB18062B7
:100530008AB98AB180648AB98AB188608AB984B17B
:10054000886084B993EA94BD83E085BD9C938083E1
:1005500008958AB184608AB98AB180618AB98AB102
:1005600080688AB90895E09102018E2F90E088306A
:10057000910508F0B1C0FC01EC5CFF4F0C940A053A
:10058000E0EBF0E080818F7780830895E0EBF0E08E
:10059000808180688083809100018093B30084B55E
:1005A0008F7784BD0895E0EBF0E0808180688083E0
:1005B00084B5806884BD809100018093B3008091F0
:1005C000000187BD84B58F7D84BD0895E0EBF0E028
:1005D00080818068808384B5806884BD84B58062B2
:1005E00084BD809100018093B3008091000187BD9C
:1005F0008091000188BD80818F7D80830895E0EB2C
:10060000F0E080818068808384B5806884BD84B593
:10061000806284BD808180628083809100018093AC
:10062000B3008091000187BD8091000188BD809159
:1006300000018093B4008BB18B7F8BB98BB18F7E1F
:100640008BB98BB18F778BB908958091000180931E
:10065000B3008091000187BD8091000188BD809129
:1006600000018093B4008BB184608BB98BB1806141
:100670008BB98BB18F778BB90895809100018093EE
:10068000B3008091000187BD8091000188BD8091F9
:1006900000018093B4008BB184608BB98BB18F7EE5
:1006A0008BB98BB180688BB90895809100018093DC
:1006B000B3008091000187BD8091000188BD8091C9
:1006C00000018093B4008BB18B7F8BB98BB18061BB
:1006D0008BB98BB180688BB90895809100018F3FF1
:1006E00019F08D5C809300010E94B30208958091FF
:1006F0000001882319F08353809300010E94B30204
:10070000089580910201873028F48F5F8093020161
:100710000E94B302089580910201882329F081503C
:10072000809302010E94B30208958130910581F007
:1007300060F08230910519F0039721F008950E942E
:100740006D0308950E94770308950E948103089520
:100750000E948B030895E0EBF0E080818F77808327
:1007600084B58F7D84BD84B58F7784BD80818F7D76
:1007700080830895CF93DF9300D000D0CDB7DEB74C
:100780001A8219821C821B820E948E020E94A90278
:100790000E946A000E94AB030E947F008823E1F35D
:1007A0000E9422018111F8CFBE016D5F7F4FCE0103
:1007B00001960E940B018B819C810E949503ECCFD6
:1007C0000E94540488F09F5798F0B92F9927B75189
:1007D000B0F0E1F0660F771F881F991F1AF0BA95E5
:1007E000C9F714C0B13091F00E946E04B1E00895D1
:1007F0000C946E04672F782F8827B85F39F0B93FC3
:10080000CCF3869577956795B395D9F73EF4909597
:100810008095709561957F4F8F4F9F4F0895E89415
:1008200009C097FB3EF490958095709561957F4F38
:100830008F4F9F4F9923A9F0F92F96E9BB279395E6
:10084000F695879577956795B795F111F8CFFAF4F6
:10085000BB0F11F460FF1BC06F5F7F4F8F4F9F4F27
:1008600016C0882311F096E911C0772321F09EE885
:10087000872F762F05C0662371F096E8862F70E0EB
:1008800060E02AF09A95660F771F881FDAF7880FC5
:100890009695879597F9089557FD9058440F551FE1
:1008A00059F05F3F71F04795880F97FB991F61F0F2
:1008B0009F3F79F087950895121613061406551F69
:1008C000F2CF4695F1DF08C0161617061806991FD5
:1008D000F1CF86957105610508940895E894BB27CA
:1008E00066277727CB0197F908950E9488040C9416
:1008F000F9040E94EB0438F00E94F20420F09523E2
:1009000011F00C94E2040C94E80411240C946F048C
:100910000E944C0470F3959FC1F3950F50E0551F52
:10092000629FF001729FBB27F00DB11D639FAA2744
:10093000F00DB11DAA1F649F6627B00DA11D661F93
:10094000829F2227B00DA11D621F739FB00DA11DB4
:10095000621F839FA00D611D221F749F3327A00D6E
:10096000611D231F849F600D211D822F762F6A2F0A
:1009700011249F5750409AF0F1F088234AF0EE0F6F
:10098000FF1FBB1F661F771F881F91505040A9F79C
:100990009E3F510580F00C94E2040C946F045F3F7D
:1009A000E4F3983ED4F3869577956795B795F795D8
:1009B000E7959F5FC1F7FE2B880F911D9695879550
:1009C00097F9089597F99F6780E870E060E00895CF
:1009D0009FEF80EC089500240A9416161706180657
:1009E0000906089500240A94121613061406050633
:1009F0000895092E0394000C11F4882352F0BB0FC4
:100A000040F4BF2B11F460FF04C06F5F7F4F8F4F26
:100A10009F4F0895EE0FFF1F0590F491E02D09946C
:040A2000F894FFCF78
:020A2400FF00D1
:00000001FF
